:100000000C94F3020C9440030C941B030C941B03FC
:100010000C941B030C941B030C941B030C941B03E8
:100020000C941B030C941B030C941B030C941B03D8
:100030000C941B030C941B030C941B030C941B03C8
:100040000C941B030C941B030C941B030C941B03B8
:100050000C941B030C941B030C941B030C941B03A8
:100060000C941B030C941B037069727A6B73746C91
:10007000757D303132333435363738390000000081
:10008000007CDAF2DA7C7CD6F2D67C387C3E7C3896
:10009000183C7E3C1838EABEEA38387AFE7A3800D6
:1000A000183C1800FFE7C3E7FF0018241800FFE71B
:1000B000DBE7FF0C125C607064949E946402FEA007
:1000C000A0E002FEA0A4FC5A3CE73C5AFE7C383873
:1000D000101038387CFE2844FE4428FAFA00FAFA58
:1000E0006090FE80FE006691A95606060606062967
:1000F00045FF452910207E201008047E04081010BA
:100100005438101038541010780808080830783027
:1001100078300C1C7C1C0C60707C7060000000004F
:10012000000000FA000000E000E00028FE28FE28A1
:100130002454FE5448C4C81026466C926A040A002F
:1001400010E0C00000384482000082443800543877
:10015000FE385410107C101000010E0C001010100E
:100160001010000006060004081020407C8A92A2AD
:100170007C0042FE02004E92929262848292B2CC45
:10018000182848FE08E4A2A2A29C3C5292928C82BB
:10019000848890E06C9292926C62929294780000C3
:1001A00028000000022C0000001028448228282883
:1001B0002828008244281040809A90607C82BA9A55
:1001C000723E4888483EFE9292926C7C82828244C3
:1001D000FE8282827CFE92929282FE909090807C3F
:1001E00082828ACEFE101010FE0082FE820004027F
:1001F00082FC80FE10284482FE02020202FE403889
:1002000040FEFE201008FE7C8282827CFE90909050
:10021000607C828A847AFE90989462649292924C76
:10022000C080FE80C0FC020202FCF8040204F8FC5C
:10023000021C02FCC6281028C6C0201E20C0869AB8
:1002400092B2C200FE8282824020100804008282A4
:1002500082FE2040804020020202020200C0E01024
:1002600000042A2A1E02FE1422221C1C222222140E
:100270001C222214FE1C2A2A2A1800107E904018E4
:100280002525391EFE1020201E0022BE0200040279
:1002900002BC00FE081422000082FE02003E201E66
:1002A000201E3E1020201E1C2222221C3F18242427
:1002B00018182424183F3E10202010122A2A2A241D
:1002C0002020FC22243C0202043E38040204383C74
:1002D000020C023C2214081422320909093E22268B
:1002E0002A322200106C82000000EE000000826CB6
:1002F000100040804020403C64C4643C7885858682
:10030000485C0202045E1C2A2AAA9A84AAAA9E8237
:10031000842A2A1E8284AA2A1E02042AAA9E023045
:10032000784A4E489CAAAAAA9A9C2A2A2A9A9CAA47
:100330002A2A1A0000A23E820040A2BE420080A2E9
:100340003E020F9424940F0F14A4140F3E2AAAA265
:1003500000042A2A3E2A3E5090FE924C9292924CE1
:100360004C1212124C4C5212120C5C8282845E5C53
:100370004202041E00B90505BE9C2222229CBC023A
:100380000202BC3C24FF2424127E92C266D4F43FB5
:10039000F4D4FF90946F0403117E90C0042A2A9E27
:1003A00082000022BE820C1212524C1C0202445ED9
:1003B000005E50504EBEB0988CBE649494F41464A9
:1003C000949494640C12B202041C101010101010BB
:1003D00010101CF40813355DF408142C5F0000DEC7
:1003E0000000102854284444285428105500AA001E
:1003F0005555AA55AA55AA55AA55AA000000FF00AE
:10040000080808FF00282828FF000808FF00FF0848
:10041000080F080F2828283F002828EF00FF0000B9
:10042000FF00FF28282F203F2828E808F80808F8B0
:1004300008F8282828F8000808080F00000000F82D
:1004400008080808F8080808080F08000000FF0856
:100450000808080808080808FF08000000FF28002E
:1004600000FF00FF0000F808E800003F202F2828C8
:10047000E808E828282F202F0000FF00EF28282870
:1004800028282828EF00EF282828E8280808F80856
:10049000F82828282F2808080F080F0000F808F867
:1004A000000000F8280000003F2800000F080F0897
:1004B00008FF08FF282828FF28080808F80000007F
:1004C000000F08FFFFFFFFFF0F0F0F0F0FFFFFFFD2
:1004D0000000000000FFFFF0F0F0F0F01C22221CF2
:1004E000223E54547C287E40406060407E407E40E6
:1004F000C6AA9282C61C22223C20027E0478046096
:10050000407E404099A5E7A5993854925438324E20
:10051000804E320C52B2B20C0C121E120C3D465AD6
:1005200062BC7C929292007E8080807E54545454AF
:10053000542222FA2222028A5222020222528A02E1
:100540000000FF80C00701FF00001010D6D6106C1D
:10055000486C246C60F090F06000001818000000F7
:100560000808000C02FF808000F88080780098B8AE
:10057000E848003C3C3C3C0102040810204080015B
:1005800002040810200102040810200404040404DA
:100590000404040202020202020303030303030031
:1005A000000000240027002A000000000025002889
:1005B000002B0000000007000201000003040600F9
:1005C000000000000000000007000201000003041A
:1005D00006000000000000000000000000230026CC
:1005E00000290000AF0B11241FBECFEFD8E0DEBF03
:1005F000CDBF15E0A0E0B1E0EEEDF7E102C005905F
:100600000D92AC30B107D9F715E0ACE0B5E001C010
:100610001D92AE31B107E1F715E0C6EED5E004C09A
:100620002297FE010E94E90BC43ED107C9F70E9440
:10063000E20B0C94ED0B0C940000823000F5E82FD7
:10064000F0E0EE0FFF1FE45FFA4F718360838823B1
:1006500019F08130A1F408C0809169008C7F842B4F
:1006600080936900E89A089580916900440F551FAE
:10067000440F551F837F842B80936900E99A089566
:100680001F920F920FB60F9211242F933F934F9307
:100690005F936F937F938F939F93AF93BF93EF93EA
:1006A000FF9380910C0590910D05892B29F0E09125
:1006B0000C05F0910D050995FF91EF91BF91AF9158
:1006C0009F918F917F916F915F914F913F912F916A
:1006D0000F900FBE0F901F90189508950895809168
:1006E0001305811181E008959091130520E030E019
:1006F00080911305F901E859FF4FE4918E1721F419
:10070000F901EE58FF4F94912F5F3F4F2A3031058A
:1007100079F710921305892F08951F93162F609370
:100720001005709311051092120510921305109286
:1007300014051092150583E060E00E94410583E0F6
:1007400061E00E94AA04812F60E00E944105812F90
:1007500061E00E94AA0481E064EB73E040E050E0B5
:100760000E941D031F910895809110050E942D0481
:100770009C0140911405842F8150883068F4842FA7
:1007800090E0019702C0220F331F8A95E2F7809113
:100790001205822B80931205842F8F5F809314059E
:1007A0008B30A9F490911205903F21F481E0809361
:1007B000150509C080911505882319F010921505BB
:1007C00002C090931305109212051092140508951B
:1007D0000197F1F7089520E030E040E951E00DC0C5
:1007E000FA013197F1F701968A309105C9F72F5F29
:1007F0003F4F83E0283E380719F080E090E0F0CFCB
:1008000008958FE384B940E951E02D9A20E030E06B
:100810000DC0FA013197F1F701968A309105C9F7B9
:100820002F5F3F4F83E0283E380719F080E090E0CB
:10083000F0CF2D9820E030E00DC0FA013197F1F7AC
:1008400001968A309105C9F72F5F3F4F83E0283E1C
:100850003807D9F280E090E0F0CF482F50E0CA018D
:100860008D549A4FFC012491CA0189589A4FFC017A
:10087000949145575A4FFA013491332319F420E0EB
:1008800030E041C0222351F1233071F0243028F4AC
:100890002130A1F0223011F514C02630B1F02730FC
:1008A000C1F02430D9F404C0809180008F7703C058
:1008B000809180008F7D8093800010C084B58F77F9
:1008C00002C084B58F7D84BD09C08091B0008F7750
:1008D00003C08091B0008F7D8093B000232F30E063
:1008E000220F331F27523A4FF901A591B4918C91F1
:1008F000282F30E0892F90E0282339232115310556
:1009000011F021E030E0C9010895809300050895B9
:10091000982F8E3008F09E50977080910005829538
:10092000880F880F807C892B80937C0080917A00CF
:10093000806480937A0080917A0086FDFCCF2091BC
:10094000780040917900942F80E030E0282B392BFB
:10095000C9010895482F50E0CA018D549A4FFC01F7
:100960002491CA0189589A4FFC01949145575A4FD6
:10097000FA013491332309F440C0222351F123308A
:1009800071F0243028F42130A1F0223011F514C088
:100990002630B1F02730C1F02430D9F404C0809162
:1009A00080008F7703C0809180008F7D80938000CE
:1009B00010C084B58F7702C084B58F7D84BD09C017
:1009C0008091B0008F7703C08091B0008F7D8093BD
:1009D000B000E32FF0E0EE0FFF1FE755FA4FA591AF
:1009E000B4912FB7F894662321F48C9190958923C4
:1009F00002C08C91892B8C932FBF0895BF92CF9208
:100A0000DF92EF92FF920F931F93CF93DF93E82E25
:100A1000F62EB42EC7E0D0E0022F10E037E0C32E50
:100A2000D12CBB2059F4B6016C1B7D0BC80102C050
:100A3000959587956A95E2F7BC0107C0B8010C2E21
:100A400002C0759567950A94E2F7617070708E2DFB
:100A50000E94AA048F2D61E00E94AA048F2D60E0FD
:100A60000E94AA0421979FEFCF3FD907D1F6DF91CB
:100A7000CF911F910F91FF90EF90DF90CF90BF909B
:100A80000895CF93DF93482F50E0CA0189589A4FB9
:100A9000FC01349145575A4FFA018491882369F13A
:100AA00090E0880F991FFC01E156FA4FA591B4918F
:100AB000FC01E755FA4FC591D491662351F42FB745
:100AC000F8948C91932F909589238C938881892316
:100AD0000BC0623061F42FB7F8948C91932F9095EE
:100AE00089238C938881832B88832FBF06C09FB76F
:100AF000F8948C91832B8C939FBFDF91CF910895B5
:100B0000CF93DF93962F50E0BA017695762F662724
:100B10007795679585E0280290011124892F605010
:100B20007F4FE9012596F901E458FF4FE491DB017D
:100B3000A80FB11DEC938F5F2F5F3F4F2C173D0720
:100B400091F7292F2B5F342F330F330F330F692F7A
:100B5000665F4F5F5F4F440F440F440F809117054E
:100B6000281710F42093170580911805861710F4A4
:100B70006093180580911905381710F43093190502
:100B800080911A05841710F440931A05DF91CF91D4
:100B90000895EF92FF920F931F93CF93DF937C0101
:100BA000162F042FE901FE0121962491222379F0CA
:100BB000C701612F402F0E9480051A5F812F90E0AE
:100BC0008A37910514F00F5F10E0083060F3DF9171
:100BD000CF911F910F91FF90EF900895EF92FF92A8
:100BE0000F931F93CF93DF937C01162F042FE901FE
:100BF00010C0C701612F402F0E9480051A5F812F0E
:100C000090E08A37910514F00F5F10E0083020F46F
:100C100021962881222369F7DF91CF911F910F91AF
:100C2000FF90EF90089567FD3CC04034D0F5E42F6D
:100C3000E695E695E69570E050E02223C9F0F0E0F5
:100C4000F695FE2FEE27F795E795E60FF71FE05094
:100C5000FF4F409550954770507081E090E002C082
:100C6000880F991F4A95E2F72081282B2083089549
:100C7000F0E0F695FE2FEE27F795E795E60FF71FC4
:100C8000E050FF4F409550954770507081E090E0E4
:100C900002C0880F991F4A95E2F780952081822330
:100CA000808308952F923F924F925F926F927F922E
:100CB0008F929F92AF92BF92CF92DF92EF92FF926C
:100CC0000F931F93DF93CF9300D000D0CDB7DEB743
:100CD0004C01B62E342E122F402E962F921B042F2D
:100CE000021B260F312F340F80911705981710F42F
:100CF0009093170580911805821710F4209318051A
:100D000080911905081710F40093190580911A05B0
:100D1000831710F430931A05C12EDD24632C772439
:100D20007601E60CF71C07C0C4016B2D402F242D63
:100D30000E9413060F5F802F90E0E816F906A4F7D3
:100D40004CC0F7FC04C0015022E0520EF50CE394B5
:100D5000132D101B802F992787FD9095860D971DC9
:100D60009C838B839E2D9B0D9A832B2C2E180DC05C
:100D7000C4016A81412F242D0E941306C401622DF3
:100D8000412F242D0E9413061F5F812F90E0EB81DD
:100D9000FC81E817F90764F7132D1E19F02FFB0DDE
:100DA000F9832B2C201A0DC0C4016981412F242DF9
:100DB0000E941306C401622D412F242D0E941306A8
:100DC0001F5F812F90E0C816D90674F7FA0C22E055
:100DD000A20E0894C11CD11C0FC0FF24F394F11A79
:100DE000CC0CDD1C5C2C5194012F63010894C11CB8
:100DF000D11CEE2413E0A12EE0160CF4A2CF0F902C
:100E00000F900F900F90CF91DF911F910F91FF9056
:100E1000EF90DF90CF90BF90AF909F908F907F909A
:100E20006F905F904F903F902F9008957F928F9298
:100E30009F92AF92BF92CF92DF92EF92FF920F9369
:100E40001F93CF93DF93EC01962EA42ED02EF62E77
:100E5000F21A142F121B022F060F422F4A0D8091F7
:100E60001705F81610F4F0921705809118058017F1
:100E700010F40093180580911905181710F41093B9
:100E8000190580911A05841710F440931A05BB24A4
:100E9000B394B21A822F90E0880F991F782E719424
:100EA000C22ECE01692D2D2D0E941306CE01692D73
:100EB000412F2D2D0E941306CE01602F4A2D2D2D7E
:100EC0000E941306CE016F2D4A2D2D2D0E94130670
:100ED000EE2483E0882E4AC0B7FC04C0CA9482E0A6
:100EE000780EB70CE394B80CFE2CF90C1C2D1A0DDF
:100EF000CE016F2D412F2D2D0E941306092D0E19A5
:100F0000CE01602F412F2D2D0E9413061A2D1C1982
:100F1000CE016F2D412F2D2D0E941306CE01602F83
:100F2000412F2D2D0E941306FC2CF90C1E2D1A0D9D
:100F3000CE016F2D412F2D2D0E941306092D0C1966
:100F4000CE01602F412F2D2D0E9413061A2D1E1940
:100F5000CE016F2D412F2D2D0E941306CE01602F43
:100F6000412F2D2D0E94130682E0880EEC140CF404
:100F7000B3CFDF91CF911F910F91FF90EF90DF9052
:100F8000CF90BF90AF909F908F907F9008959F9249
:100F9000AF92BF92CF92DF92EF92FF920F931F9387
:100FA000CF93DF936C01162FF42EB22EA02E062FB6
:100FB000C62FD0E0C20FD11DFA949F2C9A0CF39447
:100FC0000DC0C601602F4F2D2E2D0E941306C601A5
:100FD000602F492D2E2D0E9413060F5F802F90E069
:100FE0008C179D0774F30F2DCF2DD0E0CA0DD11DA6
:100FF0001150912E9B0C1F5F0DC0C601612F402F19
:101000002E2D0E941306C601692D402F2E2D0E9401
:1010100013060F5F802F90E08C179D0774F32B2D24
:10102000210F0A2D0F0D80911705181710F410933A
:10103000170580911805821710F4209318058091E8
:101040001905F81610F4F092190580911A05801709
:1010500010F400931A05DF91CF911F910F91FF902B
:10106000EF90DF90CF90BF90AF909F9008957F92C8
:101070008F929F92AF92BF92CF92DF92EF92FF92A8
:101080000F931F93CF93DF935C01D62EC42E922E25
:10109000802E7E2C062FE62EFF24E20EF11CC42F9C
:1010A000D0E0C80DD11D0DC0C501602F412F272DE7
:1010B0000E9413061F5F812F90E08C179D07A4F3F9
:1010C0000F5F802F90E08E159F0514F41C2DF3CF39
:1010D000292D2D0D082D0C0D80911705D81610F413
:1010E000D092170580911805821710F420931805E7
:1010F00080911905C81610F4C092190580911A053F
:10110000801710F400931A05DF91CF911F910F9172
:10111000FF90EF90DF90CF90BF90AF909F908F9017
:101120007F9008959F92AF92BF92CF92DF92EF92FD
:10113000FF920F931F93CF93DF93EC01162FF42EA2
:10114000D22E9E2CAA24202F30E0241B310937FFF9
:1011500003C0309521953F4F8D2D90E0811B910963
:1011600097FF03C0909581959F4F8217930744F492
:10117000AA24A394802F0D2DD82E8F2DF12E182F59
:10118000D11630F4812F1D2DD82E8F2DF02E082F43
:1011900080911705181710F4109317058091180502
:1011A0008D1510F4D092180580911905F81610F4D9
:1011B000F092190580911A05801710F400931A0512
:1011C000CD2CC11A802F90E08F19910997FF03C091
:1011D000909581959F4FB82EF01618F0EE24EA9462
:1011E00002C0EE24E3940C2D069512C0AA2021F033
:1011F000CE016F2D412F03C0CE01612F4F2D292D20
:101200000E9413060B1907FF02C0FE0C0C0D1F5F96
:10121000D11660F7DF91CF911F910F91FF90EF9062
:10122000DF90CF90BF90AF909F9008952F923F9204
:101230004F925F926F927F928F929F92AF92BF92E6
:10124000CF92DF92EF92FF920F931F93CF93DF9392
:101250002C01F62EB42E3901D02EAE2C00E041E048
:10126000242E312C13C0FE01849190E08821992115
:10127000892B39F0612F6F0DC2014E2D2C2D0E944C
:1012800013061F5F21961D1570F30F5F0A15A8F452
:10129000802F8770410102C0880C991C8A95E2F763
:1012A000802F8695869586958D9DE0011124C60D2B
:1012B000D71D10E0E02EEB0CE6CF0D2D0F0DEA2C24
:1012C000EB0C80911705F81610F4F0921705809139
:1012D0001805801710F40093180580911905B816A9
:1012E00010F4B092190580911A058E1510F4E09251
:1012F0001A05DF91CF911F910F91FF90EF90DF9032
:10130000CF90BF90AF909F908F907F906F905F90A5
:101310004F903F902F90089567FD57C0403408F0DC
:1013200054C0E42FE695E695E695862F90E0A42F2D
:10133000B0E02223C9F0F0E0F695FE2FEE27F795F6
:10134000E795E80FF91FE050FF4FA095B095A77003
:10135000B07081E090E002C0880F991FAA95E2F773
:101360002081282B208319C0F0E0F695FE2FEE2770
:10137000F795E795E80FF91FE050FF4FA095B0955E
:10138000A770B07081E090E002C0880F991FAA9505
:10139000E2F780952081822380838091170568176A
:1013A00010F46093170580911805861710F4609368
:1013B000180580911905481710F44093190580917C
:1013C0001A05841710F440931A05089567FD20C08C
:1013D0004034F0F4E42FE695E695E695F0E0F695D6
:1013E000FE2FEE27F795E795E60FF11DE050FF4F32
:1013F000208130E0842F90E08095909587709070E8
:1014000002C0359527958A95E2F7822F817008955D
:1014100080E00895FF920F931F938C01F62EFC013C
:10142000828160E00E94AA04F8018081618141E02C
:101430002F2D0E94FE041F910F91FF900895FF929F
:101440000F931F938C01F62EFC01828161E00E94B4
:10145000AA04F8018081618141E02F2D0E94FE04E1
:101460001F910F91FF900895EF92FF921F937C01BF
:10147000162F61E80E940A0A1F73C701612F0E949C
:101480000A0A1F91FF90EF9008958F929F92AF925A
:10149000BF92CF92DF92EF92FF920F931F93CF9361
:1014A000DF93EC0101E0802E05E0902E20E030E09B
:1014B000AA24BB2418E0C12ED12CC20ED31E8091C9
:1014C000190590E08C159D058CF580911A0590E02A
:1014D00082179307C4F1F4016081606BCE010E9412
:1014E0000A0A1091170500911805612F6F70CE013F
:1014F0000E940A0A612F62956F706061CE010E949E
:101500000A0ACE0160EE0E940A0AB0E0EB2EB1E0BA
:10151000FB2EEA0CFB1C08C0F701E10FF11DCE0108
:1015200060810E941F0A1F5F0117B0F70894811C99
:10153000911C80E890E0A80EB91E90E4C916D10471
:1015400011F09601B7CF8FE7809317051092180519
:101550008FE38093190510921A05DF91CF911F91A7
:101560000F91FF90EF90DF90CF90BF90AF909F9042
:101570008F9008950F931F93CF93DF93EC0100E0BA
:10158000602F606BCE010E940A0A10E0612F6F701D
:10159000CE010E940A0A612F62956F706061CE01D0
:1015A0000E940A0ACE0160E00E941F0A1F5F1138E4
:1015B00069F70F5F083021F7DF91CF911F910F91ED
:1015C000089580E094E0E0E0F1E0DF019C011D92ED
:1015D00021503040E1F780911705882311F01092D7
:1015E0001705809118058F3718F48FE78093180539
:1015F00080911905882311F01092190580911A0520
:101600008F3318F48FE380931A050895EF92FF92B9
:101610000F931F93CF93DF937C0100E010E00CC089
:10162000C0E0D0E080E991E00E94E8032196CA3052
:10163000D105C1F70F5F1F4F0E151F058CF3DF910A
:10164000CF911F910F91FF90EF900895CF93DF936B
:10165000EC01888161E00E944105898161E00E947E
:1016600041058A8161E00E9441058B8161E00E9411
:1016700041058C8161E00E9441058C8118161CF4A3
:1016800060E00E94AA048B8160E00E94AA0484EFBB
:1016900091E00E94060B8B8161E00E94AA04CE01BA
:1016A00063EA0E940A0ACE0160EA0E940A0ACE0199
:1016B00060EC0E940A0ACE0160E40E940A0ACE0190
:1016C0006CE20E940A0A82E390E00E94060BCE01BF
:1016D0006EE20E940A0A82E390E00E94060BCE01AD
:1016E0006FE20E940A0A8AE090E00E94060BCE0197
:1016F00065E20E940A0A80911705882311F0109272
:101700001705809118058F3718F48FE78093180517
:1017100080911905882311F01092190580911A05FE
:101720008F3318F48FE380931A05DF91CF910895DA
:10173000FF920F931F938C01F62E0E94260BC80177
:101740006FEA0E940A0AC80164EA0E940A0AC801F4
:101750006F2D0E94340A1F910F91FF9008958BE125
:1017600095E00E946E0308958BE195E00E946F035F
:101770008823B9F08BE195E00E947403982F805381
:101780008A3010F09A3531F48091090560E00E94AA
:10179000AA040895963729F48091090561E00E9412
:1017A000AA0408958BE195E064E070E00E948D0347
:1017B00088EE93E00E94060B8091090561E00E948B
:1017C000410508950E94D20B0E94B40BFDCFEE0F8D
:0E17D000FF1F0590F491E02D0994F894FFCFCF
:1017DE0000000000000000000000000000000000FB
:1017EE0000000000000000000000000000000000EB
:1017FE0000000000000000000000000000000000DB
:10180E0000000000000000000000000000000000CA
:10181E0000000000000000000000000000000000BA
:10182E0000000000000000000000000000000000AA
:10183E00000000000000000000000000000000009A
:10184E00000000000000000000000000000000008A
:10185E00000000000000000000000000000000007A
:10186E0000000003070F1F1F3F3F3F3F0700000010
:10187E00000000000000000000000000000000005A
:10188E00000000000000000000000000000000004A
:10189E0000007F3F0000000000000000000000007C
:1018AE0000001F3F707000000000000000000000EC
:1018BE000000000000000000000606000000030308
:1018CE00000000000000000000000000000000000A
:1018DE001F1F1F1F1F1F1F1F1F1F1F1F1F0F07074A
:1018EE00073FFFFFFFFFFFFEFFFFFFFFFF3E000072
:1018FE0000000000000000000000000000000F3F8C
:10190E007060606060307F3F00001F3F70606060FD
:10191E006039FFFF00061F3960606060303F7F0056
:10192E000060FFFF6060007F7F70606040007F7F1F
:10193E00000000007F7F0000007F7F000060FFFF3F
:10194E0060600000000000000000000000000000C9
:10195E0080F8FCFEFEFFFFFFFFFFFFFFEFE7E7E370
:10196E00F3F9FFFFFFF7071FFFFFFFFFFFFF7FFFEB
:10197E007F7F7F7F7F7F3F3F1F0F0703000000C0E9
:10198E00E060202060E0E0E0000080C0E0602060C9
:10199E0060E0E0E0000080C06060206060E0E00099
:1019AE000000E0E0000000E0E0000000000080E049
:1019BE0060606060E080000000E0E0000000E0E0B9
:1019CE000000000000000000000000000000000009
:1019DE0000000003071F9FFFFFFFFFFFFFFDF1E366
:1019EE00E3CFFFFFFFFFF0FC7F3F3F3F3F7FFFFF57
:1019FE00FFFFFFFFFFFFFFFEFCF0E0800000000C8A
:101A0E001C000000000000000000000000000000AC
:101A1E000000000000007F7F0000000000000000BA
:101A2E00000000000000000000000000000707009A
:101A3E000000000000000000001C0C000000000070
:101A4E000000000000000000000000000000000088
:101A5E000007FFFFFFFFFFFFFFFFFEFEFEFEFCF88D
:101A6E00F8F0FEFFFFFF7F3FFFFFFFFFFFFFFF1FAF
:101A7E00000000000000000000000000000000FF59
:101A8E00FF000000FFFFE0C0C0C0FF7F00001E7F10
:101A9E00E1C0C0C0C061FFFF0000FEFF01000000FA
:101AAE00FFFF000021F9F8DCCCCF0700C0FFFFC01C
:101ABE008000FFFFC0C0800000FFFF00001F7FF905
:101ACE00C8C8C8C87939000071F9D8CCCE47030010
:101ADE0000000000808000000000000000000000F8
:101AEE0000000080C0E0F0F8F8FCFCFCFCF8F0C050
:101AFE00000000000000000000000000000000C018
:101B0E00C0000000C0C000000000C0C00000008087
:101B1E00C0C0C0C0C080C0C000000080C0C0C0C077
:101B2E00C080000080C0C0C0C0C0000000C0C000A7
:101B3E000000C0800000000000C0C000000080C097
:101B4E00C0C0C0C08080000080C0C0C0C080000087
:101B5E000000000000000000000000000000000077
:101B6E000000000000000000000000000000000067
:101B7E000000000000000000000000000000000057
:101B8E000000000000000000000000000000000047
:101B9E000000000000000000000000000000000037
:101BAE000000000000000000000000000000000027
:101BBE000000000000000000000000000000000017
:101BCE000000000000000000000000000000000007
:0C1BDE000107060504030201000D0000D1
:00000001FF
